{
  "contractName": "TokenCuratedGit",
  "abi": [
    {
      "constant": true,
      "inputs": [],
      "name": "hasInitialized",
      "outputs": [
        {
          "name": "",
          "type": "bool"
        }
      ],
      "payable": false,
      "stateMutability": "view",
      "type": "function"
    },
    {
      "constant": true,
      "inputs": [],
      "name": "KERNEL_APP_ID",
      "outputs": [
        {
          "name": "",
          "type": "bytes32"
        }
      ],
      "payable": false,
      "stateMutability": "view",
      "type": "function"
    },
    {
      "constant": true,
      "inputs": [],
      "name": "APP_ADDR_NAMESPACE",
      "outputs": [
        {
          "name": "",
          "type": "bytes32"
        }
      ],
      "payable": false,
      "stateMutability": "view",
      "type": "function"
    },
    {
      "constant": true,
      "inputs": [],
      "name": "getRecoveryVault",
      "outputs": [
        {
          "name": "",
          "type": "address"
        }
      ],
      "payable": false,
      "stateMutability": "view",
      "type": "function"
    },
    {
      "constant": true,
      "inputs": [],
      "name": "APPROVER_ROLE",
      "outputs": [
        {
          "name": "",
          "type": "bytes32"
        }
      ],
      "payable": false,
      "stateMutability": "view",
      "type": "function"
    },
    {
      "constant": true,
      "inputs": [],
      "name": "EVMSCRIPT_REGISTRY_APP_ID",
      "outputs": [
        {
          "name": "",
          "type": "bytes32"
        }
      ],
      "payable": false,
      "stateMutability": "view",
      "type": "function"
    },
    {
      "constant": true,
      "inputs": [],
      "name": "CORE_NAMESPACE",
      "outputs": [
        {
          "name": "",
          "type": "bytes32"
        }
      ],
      "payable": false,
      "stateMutability": "view",
      "type": "function"
    },
    {
      "constant": true,
      "inputs": [
        {
          "name": "token",
          "type": "address"
        }
      ],
      "name": "allowRecoverability",
      "outputs": [
        {
          "name": "",
          "type": "bool"
        }
      ],
      "payable": false,
      "stateMutability": "view",
      "type": "function"
    },
    {
      "constant": true,
      "inputs": [],
      "name": "appId",
      "outputs": [
        {
          "name": "",
          "type": "bytes32"
        }
      ],
      "payable": false,
      "stateMutability": "view",
      "type": "function"
    },
    {
      "constant": true,
      "inputs": [],
      "name": "ETH",
      "outputs": [
        {
          "name": "",
          "type": "address"
        }
      ],
      "payable": false,
      "stateMutability": "view",
      "type": "function"
    },
    {
      "constant": true,
      "inputs": [],
      "name": "getInitializationBlock",
      "outputs": [
        {
          "name": "",
          "type": "uint256"
        }
      ],
      "payable": false,
      "stateMutability": "view",
      "type": "function"
    },
    {
      "constant": false,
      "inputs": [
        {
          "name": "_token",
          "type": "address"
        }
      ],
      "name": "transferToVault",
      "outputs": [],
      "payable": false,
      "stateMutability": "nonpayable",
      "type": "function"
    },
    {
      "constant": true,
      "inputs": [
        {
          "name": "_sender",
          "type": "address"
        },
        {
          "name": "_role",
          "type": "bytes32"
        },
        {
          "name": "_params",
          "type": "uint256[]"
        }
      ],
      "name": "canPerform",
      "outputs": [
        {
          "name": "",
          "type": "bool"
        }
      ],
      "payable": false,
      "stateMutability": "view",
      "type": "function"
    },
    {
      "constant": true,
      "inputs": [],
      "name": "ACL_APP_ID",
      "outputs": [
        {
          "name": "",
          "type": "bytes32"
        }
      ],
      "payable": false,
      "stateMutability": "view",
      "type": "function"
    },
    {
      "constant": true,
      "inputs": [],
      "name": "kernel",
      "outputs": [
        {
          "name": "",
          "type": "address"
        }
      ],
      "payable": false,
      "stateMutability": "view",
      "type": "function"
    },
    {
      "constant": true,
      "inputs": [],
      "name": "APP_BASES_NAMESPACE",
      "outputs": [
        {
          "name": "",
          "type": "bytes32"
        }
      ],
      "payable": false,
      "stateMutability": "view",
      "type": "function"
    },
    {
      "constant": true,
      "inputs": [],
      "name": "isPetrified",
      "outputs": [
        {
          "name": "",
          "type": "bool"
        }
      ],
      "payable": false,
      "stateMutability": "view",
      "type": "function"
    },
    {
      "constant": true,
      "inputs": [
        {
          "name": "_script",
          "type": "bytes"
        }
      ],
      "name": "getExecutor",
      "outputs": [
        {
          "name": "",
          "type": "address"
        }
      ],
      "payable": false,
      "stateMutability": "view",
      "type": "function"
    },
    {
      "anonymous": false,
      "inputs": [
        {
          "indexed": true,
          "name": "gitHash",
          "type": "bytes32"
        },
        {
          "indexed": true,
          "name": "data",
          "type": "bytes32"
        },
        {
          "indexed": true,
          "name": "sender",
          "type": "address"
        }
      ],
      "name": "Approve",
      "type": "event"
    },
    {
      "anonymous": false,
      "inputs": [
        {
          "indexed": true,
          "name": "executor",
          "type": "address"
        },
        {
          "indexed": false,
          "name": "script",
          "type": "bytes"
        },
        {
          "indexed": false,
          "name": "input",
          "type": "bytes"
        },
        {
          "indexed": false,
          "name": "returnData",
          "type": "bytes"
        }
      ],
      "name": "ScriptResult",
      "type": "event"
    },
    {
      "constant": false,
      "inputs": [],
      "name": "initialize",
      "outputs": [],
      "payable": false,
      "stateMutability": "nonpayable",
      "type": "function"
    },
    {
      "constant": false,
      "inputs": [
        {
          "name": "gitHash",
          "type": "bytes32"
        },
        {
          "name": "data",
          "type": "bytes32"
        }
      ],
      "name": "approve",
      "outputs": [],
      "payable": false,
      "stateMutability": "nonpayable",
      "type": "function"
    }
  ],
  "bytecode": "0x60806040526200001d62000023640100000000026401000000009004565b6200015b565b60006200003e62000087640100000000026401000000009004565b1415156200004b57600080fd5b620000857fffffffffffffffffffffffffffffffffffffffffffffffffffffffffffffffff620000d4640100000000026401000000009004565b565b6000620000cf7febb05b386a8d34882b8711d156f463690983dc47815980fb82aeeff1aa43579e600102600019166200014964010000000002620010be176401000000009004565b905090565b6000620000ef62000087640100000000026401000000009004565b141515620000fc57600080fd5b62000146817febb05b386a8d34882b8711d156f463690983dc47815980fb82aeeff1aa43579e60010260001916620001546401000000000262001241179091906401000000009004565b50565b600081549050919050565b8082555050565b611274806200016b6000396000f300608060405260043610610112576000357c0100000000000000000000000000000000000000000000000000000000900463ffffffff1680630803fac0146101175780631113ed0d14610146578063178e60791461017957806332f0a3b5146101ac5780634245962b1461020357806360b1e0571461023657806366f125db14610269578063756f6049146102a85780637e7db6e1146102db57806380afdea8146103365780638129fc1c146103695780638322fff2146103805780638b3dd749146103d75780639d4941d814610402578063a1658fad14610445578063cbcc65eb146104f1578063d4aae0c414610524578063db8a61d41461057b578063de4796ed146105ae578063f92a79ff146105dd575b600080fd5b34801561012357600080fd5b5061012c610686565b604051808215151515815260200191505060405180910390f35b34801561015257600080fd5b5061015b6106b1565b60405180826000191660001916815260200191505060405180910390f35b34801561018557600080fd5b5061018e6106d8565b60405180826000191660001916815260200191505060405180910390f35b3480156101b857600080fd5b506101c16106ff565b604051808273ffffffffffffffffffffffffffffffffffffffff1673ffffffffffffffffffffffffffffffffffffffff16815260200191505060405180910390f35b34801561020f57600080fd5b506102186107ee565b60405180826000191660001916815260200191505060405180910390f35b34801561024257600080fd5b5061024b610827565b60405180826000191660001916815260200191505060405180910390f35b34801561027557600080fd5b506102a66004803603810190808035600019169060200190929190803560001916906020019092919050505061084e565b005b3480156102b457600080fd5b506102bd61091c565b60405180826000191660001916815260200191505060405180910390f35b3480156102e757600080fd5b5061031c600480360381019080803573ffffffffffffffffffffffffffffffffffffffff169060200190929190505050610943565b604051808215151515815260200191505060405180910390f35b34801561034257600080fd5b5061034b61094e565b60405180826000191660001916815260200191505060405180910390f35b34801561037557600080fd5b5061037e610985565b005b34801561038c57600080fd5b506103956109a5565b604051808273ffffffffffffffffffffffffffffffffffffffff1673ffffffffffffffffffffffffffffffffffffffff16815260200191505060405180910390f35b3480156103e357600080fd5b506103ec6109aa565b6040518082815260200191505060405180910390f35b34801561040e57600080fd5b50610443600480360381019080803573ffffffffffffffffffffffffffffffffffffffff1690602001909291905050506109e1565b005b34801561045157600080fd5b506104d7600480360381019080803573ffffffffffffffffffffffffffffffffffffffff169060200190929190803560001916906020019092919080359060200190820180359060200190808060200260200160405190810160405280939291908181526020018383602002808284378201915050505050509192919290505050610c6b565b604051808215151515815260200191505060405180910390f35b3480156104fd57600080fd5b50610506610e7d565b60405180826000191660001916815260200191505060405180910390f35b34801561053057600080fd5b50610539610ea4565b604051808273ffffffffffffffffffffffffffffffffffffffff1673ffffffffffffffffffffffffffffffffffffffff16815260200191505060405180910390f35b34801561058757600080fd5b50610590610edb565b60405180826000191660001916815260200191505060405180910390f35b3480156105ba57600080fd5b506105c3610f02565b604051808215151515815260200191505060405180910390f35b3480156105e957600080fd5b50610644600480360381019080803590602001908201803590602001908080601f0160208091040260200160405190810160405280939291908181526020018383808284378201915050505050509192919290505050610f33565b604051808273ffffffffffffffffffffffffffffffffffffffff1673ffffffffffffffffffffffffffffffffffffffff16815260200191505060405180910390f35b6000806106916109aa565b9050600081141580156106ab5750806106a8611052565b10155b91505090565b7f3b4bf6bf3ad5000ecf0f989d5befde585c6860fea3e574a4fab4c49d1c177d9c60010281565b7fd6f028ca0e8edb4a8c9757ca4fdccab25fa1e0317da1188108f7d2dee14902fb60010281565b60008073ffffffffffffffffffffffffffffffffffffffff16610720610ea4565b73ffffffffffffffffffffffffffffffffffffffff161415151561074357600080fd5b61074b610ea4565b73ffffffffffffffffffffffffffffffffffffffff166332f0a3b56040518163ffffffff167c0100000000000000000000000000000000000000000000000000000000028152600401602060405180830381600087803b1580156107ae57600080fd5b505af11580156107c2573d6000803e3d6000fd5b505050506040513d60208110156107d857600080fd5b8101908080519060200190929190505050905090565b60405180807f415050524f5645525f524f4c4500000000000000000000000000000000000000815250600d019050604051809103902081565b7fddbcfd564f642ab5627cf68b9b7d374fb4f8a36e941a75d89c87998cef03bd6160010281565b60405180807f415050524f5645525f524f4c4500000000000000000000000000000000000000815250600d01905060405180910390206108bf338260006040519080825280602002602001820160405280156108b95781602001602082028038833980820191505090505b50610c6b565b15156108ca57600080fd5b3373ffffffffffffffffffffffffffffffffffffffff16826000191684600019167fa7dc38907d59b6f3deaa5aa19c81e0b8adf10062db57d599f4f17058ed713be160405160405180910390a4505050565b7fc681a85306374a5ab27f0bbc385296a54bcd314a1948b6cf61c4ea1bc44bb9f860010281565b600060019050919050565b60006109807fd625496217aa6a3453eecb9c3489dc5a53e6c67b444329ea2b2cbc9ff547639b6001026000191661105a565b905090565b600061098f6109aa565b14151561099b57600080fd5b6109a3611065565b565b600081565b60006109dc7febb05b386a8d34882b8711d156f463690983dc47815980fb82aeeff1aa43579e600102600019166110be565b905090565b6000806109ed83610943565b15156109f857600080fd5b610a006106ff565b9150610a0b826110c9565b1515610a1657600080fd5b600073ffffffffffffffffffffffffffffffffffffffff168373ffffffffffffffffffffffffffffffffffffffff161415610aae578173ffffffffffffffffffffffffffffffffffffffff166108fc3073ffffffffffffffffffffffffffffffffffffffff16319081150290604051600060405180830381858888f19350505050158015610aa8573d6000803e3d6000fd5b50610c66565b8273ffffffffffffffffffffffffffffffffffffffff166370a08231306040518263ffffffff167c0100000000000000000000000000000000000000000000000000000000028152600401808273ffffffffffffffffffffffffffffffffffffffff1673ffffffffffffffffffffffffffffffffffffffff168152602001915050602060405180830381600087803b158015610b4957600080fd5b505af1158015610b5d573d6000803e3d6000fd5b505050506040513d6020811015610b7357600080fd5b810190808051906020019092919050505090508273ffffffffffffffffffffffffffffffffffffffff1663a9059cbb83836040518363ffffffff167c0100000000000000000000000000000000000000000000000000000000028152600401808373ffffffffffffffffffffffffffffffffffffffff1673ffffffffffffffffffffffffffffffffffffffff16815260200182815260200192505050602060405180830381600087803b158015610c2957600080fd5b505af1158015610c3d573d6000803e3d6000fd5b505050506040513d6020811015610c5357600080fd5b8101908080519060200190929190505050505b505050565b60008060606000610c7a610686565b1515610c895760009350610e73565b610c91610ea4565b9250600073ffffffffffffffffffffffffffffffffffffffff168373ffffffffffffffffffffffffffffffffffffffff161415610cd15760009350610e73565b600085511115610ce957602085510290508491508082525b8273ffffffffffffffffffffffffffffffffffffffff1663fdef9106883089866040518563ffffffff167c0100000000000000000000000000000000000000000000000000000000028152600401808573ffffffffffffffffffffffffffffffffffffffff1673ffffffffffffffffffffffffffffffffffffffff1681526020018473ffffffffffffffffffffffffffffffffffffffff1673ffffffffffffffffffffffffffffffffffffffff168152602001836000191660001916815260200180602001828103825283818151815260200191508051906020019080838360005b83811015610de6578082015181840152602081019050610dcb565b50505050905090810190601f168015610e135780820380516001836020036101000a031916815260200191505b5095505050505050602060405180830381600087803b158015610e3557600080fd5b505af1158015610e49573d6000803e3d6000fd5b505050506040513d6020811015610e5f57600080fd5b810190808051906020019092919050505093505b5050509392505050565b7fe3262375f45a6e2026b7e7b18c2b807434f2508fe1a2a3dfb493c7df8f4aad6a60010281565b6000610ed67f4172f0f7d2289153072b0a6ca36959e0cbe2efc3afe50fc81636caa96338137b6001026000191661111b565b905090565b7ff1f3eb40f5bc1ad1344716ced8b8a0431d840b5783aea1fd01786bc26f35ac0f60010281565b60007fffffffffffffffffffffffffffffffffffffffffffffffffffffffffffffffff610f2d6109aa565b14905090565b6000610f3d611126565b73ffffffffffffffffffffffffffffffffffffffff166304bf2a7f836040518263ffffffff167c01000000000000000000000000000000000000000000000000000000000281526004018080602001828103825283818151815260200191508051906020019080838360005b83811015610fc4578082015181840152602081019050610fa9565b50505050905090810190601f168015610ff15780820380516001836020036101000a031916815260200191505b5092505050602060405180830381600087803b15801561101057600080fd5b505af1158015611024573d6000803e3d6000fd5b505050506040513d602081101561103a57600080fd5b81019080805190602001909291905050509050919050565b600043905090565b600081549050919050565b600061106f6109aa565b14151561107b57600080fd5b6110bc611086611052565b7febb05b386a8d34882b8711d156f463690983dc47815980fb82aeeff1aa43579e6001026000191661124190919063ffffffff16565b565b600081549050919050565b600080600073ffffffffffffffffffffffffffffffffffffffff168373ffffffffffffffffffffffffffffffffffffffff16141561110a5760009150611115565b823b90506000811191505b50919050565b600081549050919050565b600080611131610ea4565b73ffffffffffffffffffffffffffffffffffffffff1663be00bbd87fd6f028ca0e8edb4a8c9757ca4fdccab25fa1e0317da1188108f7d2dee14902fb6001027fddbcfd564f642ab5627cf68b9b7d374fb4f8a36e941a75d89c87998cef03bd616001026040518363ffffffff167c0100000000000000000000000000000000000000000000000000000000028152600401808360001916600019168152602001826000191660001916815260200192505050602060405180830381600087803b1580156111fd57600080fd5b505af1158015611211573d6000803e3d6000fd5b505050506040513d602081101561122757600080fd5b810190808051906020019092919050505090508091505090565b80825550505600a165627a7a7230582025feed24711dead2694a8ea1dbdd77ab1848649ae2e735d4abf4557684a2d34c0029",
  "source": "pragma solidity ^0.4.24;\n\nimport \"@aragon/os/contracts/apps/AragonApp.sol\";\nimport \"@aragon/os/contracts/lib/math/SafeMath.sol\";\n\ncontract TokenCuratedGit is AragonApp {\n    using SafeMath for uint256;\n\n    /// Events\n    event Approve(bytes32 indexed gitHash, bytes32 indexed data, address indexed sender);\n\n    /// ACL\n    bytes32 constant public APPROVER_ROLE = keccak256(\"APPROVER_ROLE\");\n\n    function initialize() onlyInit public {\n        initialized();\n    }\n\n    /**\n     * @notice Approve git commit `gitHash` with data `data`\n     * @param gitHash The git commit hash\n     * @param data Additional data, possibly a link\n     */\n    function approve(bytes32 gitHash, bytes32 data) auth(APPROVER_ROLE) external {\n        emit Approve(gitHash, data, msg.sender);\n    }\n}\n",
  "sourcePath": "/Users/velaru/work/token-curated-git/curation-app/contracts/TokenCuratedGit.sol",
  "compiler": {
    "name": "solc",
    "version": "0.4.24+commit.e67f0147.Emscripten.clang"
  },
  "schemaVersion": "2.0.1",
  "updatedAt": "2018-10-07T03:18:05.363Z"
}